{
  "_format": "hh-sol-artifact-1",
  "contractName": "RandomNumber",
  "sourceName": "contracts/RandomNumber.sol",
  "abi": [
    {
      "inputs": [
        {
          "internalType": "uint64",
          "name": "subscriptionId",
          "type": "uint64"
        }
      ],
      "stateMutability": "nonpayable",
      "type": "constructor"
    },
    {
      "inputs": [
        {
          "internalType": "address",
          "name": "have",
          "type": "address"
        },
        {
          "internalType": "address",
          "name": "want",
          "type": "address"
        }
      ],
      "name": "OnlyCoordinatorCanFulfill",
      "type": "error"
    },
    {
      "inputs": [
        {
          "internalType": "uint256",
          "name": "requestId",
          "type": "uint256"
        },
        {
          "internalType": "uint256[]",
          "name": "randomWords",
          "type": "uint256[]"
        }
      ],
      "name": "rawFulfillRandomWords",
      "outputs": [],
      "stateMutability": "nonpayable",
      "type": "function"
    },
    {
      "inputs": [],
      "name": "requestRandomWords",
      "outputs": [],
      "stateMutability": "nonpayable",
      "type": "function"
    },
    {
      "inputs": [],
      "name": "s_randomWord",
      "outputs": [
        {
          "internalType": "uint256",
          "name": "",
          "type": "uint256"
        }
      ],
      "stateMutability": "view",
      "type": "function"
    },
    {
      "inputs": [],
      "name": "s_requestId",
      "outputs": [
        {
          "internalType": "uint256",
          "name": "",
          "type": "uint256"
        }
      ],
      "stateMutability": "view",
      "type": "function"
    }
  ],
  "bytecode": "0x60a0604052600280546001600160a01b0319908116736168499c0cffcacd319c818142124b7a15e857ab17909155600380549091167301be23585060835e02b77ef475b0cc51aa1e07091790557fd89b2bf150e3b9e13446986e571fb9cab24b13cea0a43ea20a6049a85cc807cc6004556005805466010003000186a06001600160501b031990911617905534801561009757600080fd5b5060405161052f38038061052f8339810160408190526100b69161013c565b6002546001600160601b0319606082901b16608052600080546001600160a01b03199081166001600160a01b039384161790915560035460018054831691909316179091556008805490911633179055600580546001600160401b039092166a010000000000000000000002600160501b600160901b031990921691909117905561016c565b60006020828403121561014e57600080fd5b81516001600160401b038116811461016557600080fd5b9392505050565b60805160601c6103a061018f60003960008181609d015260df01526103a06000f3fe608060405234801561001057600080fd5b506004361061004c5760003560e01c80631fe543e314610051578063e0c8628914610066578063e89e106a1461006e578063fd210fd914610089575b600080fd5b61006461005f36600461024b565b610092565b005b61006461011e565b61007760075481565b60405190815260200160405180910390f35b61007760065481565b336001600160a01b037f000000000000000000000000000000000000000000000000000000000000000016146101105760405163073e64fd60e21b81523360048201526001600160a01b037f000000000000000000000000000000000000000000000000000000000000000016602482015260440160405180910390fd5b61011a8282610204565b5050565b6008546001600160a01b0316331461013557600080fd5b600054600480546005546040516305d3b1d360e41b815292830191909152600160501b810467ffffffffffffffff166024830152640100000000810461ffff16604483015263ffffffff808216606484015266010000000000009091041660848201526001600160a01b0390911690635d3b1d309060a401602060405180830381600087803b1580156101c757600080fd5b505af11580156101db573d6000803e3d6000fd5b505050506040513d601f19601f820116820180604052508101906101ff9190610232565b600755565b6002816000815181106102195761021961033e565b602002602001015161022b919061031c565b6006555050565b60006020828403121561024457600080fd5b5051919050565b6000806040838503121561025e57600080fd5b8235915060208084013567ffffffffffffffff8082111561027e57600080fd5b818601915086601f83011261029257600080fd5b8135818111156102a4576102a4610354565b8060051b604051601f19603f830116810181811085821117156102c9576102c9610354565b604052828152858101935084860182860187018b10156102e857600080fd5b600095505b8386101561030b5780358552600195909501949386019386016102ed565b508096505050505050509250929050565b60008261033957634e487b7160e01b600052601260045260246000fd5b500690565b634e487b7160e01b600052603260045260246000fd5b634e487b7160e01b600052604160045260246000fdfea2646970667358221220f915ac7a9ee4c88ebdc89f73233e73aa513cca8f461b83bcc4b6c219f146c17964736f6c63430008060033",
  "linkReferences": {},
  "deployedLinkReferences": {}
}